{
  "contractName": "BridgeGoerli",
  "abi": [
    {
      "inputs": [
        {
          "internalType": "address",
          "name": "token",
          "type": "address"
        }
      ],
      "stateMutability": "nonpayable",
      "type": "constructor"
    },
    {
      "anonymous": false,
      "inputs": [
        {
          "indexed": false,
          "internalType": "address",
          "name": "from",
          "type": "address"
        },
        {
          "indexed": false,
          "internalType": "address",
          "name": "to",
          "type": "address"
        },
        {
          "indexed": false,
          "internalType": "uint256",
          "name": "amount",
          "type": "uint256"
        },
        {
          "indexed": false,
          "internalType": "uint256",
          "name": "date",
          "type": "uint256"
        },
        {
          "indexed": false,
          "internalType": "uint256",
          "name": "nonce",
          "type": "uint256"
        },
        {
          "indexed": true,
          "internalType": "enum BridgeBase.Step",
          "name": "step",
          "type": "uint8"
        }
      ],
      "name": "Transfer",
      "type": "event"
    },
    {
      "inputs": [],
      "name": "admin",
      "outputs": [
        {
          "internalType": "address",
          "name": "",
          "type": "address"
        }
      ],
      "stateMutability": "view",
      "type": "function",
      "constant": true
    },
    {
      "inputs": [
        {
          "internalType": "address",
          "name": "to",
          "type": "address"
        },
        {
          "internalType": "uint256",
          "name": "amount",
          "type": "uint256"
        }
      ],
      "name": "burn",
      "outputs": [],
      "stateMutability": "nonpayable",
      "type": "function"
    },
    {
      "inputs": [
        {
          "internalType": "address",
          "name": "to",
          "type": "address"
        },
        {
          "internalType": "uint256",
          "name": "amount",
          "type": "uint256"
        },
        {
          "internalType": "uint256",
          "name": "otherChainNonce",
          "type": "uint256"
        }
      ],
      "name": "mint",
      "outputs": [],
      "stateMutability": "nonpayable",
      "type": "function"
    },
    {
      "inputs": [],
      "name": "nonce",
      "outputs": [
        {
          "internalType": "uint256",
          "name": "",
          "type": "uint256"
        }
      ],
      "stateMutability": "view",
      "type": "function",
      "constant": true
    },
    {
      "inputs": [
        {
          "internalType": "uint256",
          "name": "",
          "type": "uint256"
        }
      ],
      "name": "processedNonces",
      "outputs": [
        {
          "internalType": "bool",
          "name": "",
          "type": "bool"
        }
      ],
      "stateMutability": "view",
      "type": "function",
      "constant": true
    },
    {
      "inputs": [],
      "name": "token",
      "outputs": [
        {
          "internalType": "contract IToken",
          "name": "",
          "type": "address"
        }
      ],
      "stateMutability": "view",
      "type": "function",
      "constant": true
    }
  ],
  "bytecode": "0x608060405234801561000f575f80fd5b50604051610a40380380610a4083398181016040528101906100319190610116565b80335f806101000a81548173ffffffffffffffffffffffffffffffffffffffff021916908373ffffffffffffffffffffffffffffffffffffffff1602179055508060015f6101000a81548173ffffffffffffffffffffffffffffffffffffffff021916908373ffffffffffffffffffffffffffffffffffffffff1602179055505050610141565b5f80fd5b5f73ffffffffffffffffffffffffffffffffffffffff82169050919050565b5f6100e5826100bc565b9050919050565b6100f5816100db565b81146100ff575f80fd5b50565b5f81519050610110816100ec565b92915050565b5f6020828403121561012b5761012a6100b8565b5b5f61013884828501610102565b91505092915050565b6108f28061014e5f395ff3fe608060405234801561000f575f80fd5b5060043610610060575f3560e01c8063156e29f61461006457806391dae519146100805780639dc29fac146100b0578063affed0e0146100cc578063f851a440146100ea578063fc0c546a14610108575b5f80fd5b61007e60048036038101906100799190610513565b610126565b005b61009a60048036038101906100959190610563565b61031f565b6040516100a791906105a8565b60405180910390f35b6100ca60048036038101906100c591906105c1565b61033c565b005b6100d4610434565b6040516100e1919061060e565b60405180910390f35b6100f261043a565b6040516100ff9190610636565b60405180910390f35b61011061045d565b60405161011d91906106aa565b60405180910390f35b5f8054906101000a900473ffffffffffffffffffffffffffffffffffffffff1673ffffffffffffffffffffffffffffffffffffffff163373ffffffffffffffffffffffffffffffffffffffff16146101b3576040517f08c379a00000000000000000000000000000000000000000000000000000000081526004016101aa9061071d565b60405180910390fd5b5f151560035f8381526020019081526020015f205f9054906101000a900460ff16151514610216576040517f08c379a000000000000000000000000000000000000000000000000000000000815260040161020d90610785565b60405180910390fd5b600160035f8381526020019081526020015f205f6101000a81548160ff02191690831515021790555060015f9054906101000a900473ffffffffffffffffffffffffffffffffffffffff1673ffffffffffffffffffffffffffffffffffffffff166340c10f1984846040518363ffffffff1660e01b815260040161029b9291906107a3565b5f604051808303815f87803b1580156102b2575f80fd5b505af11580156102c4573d5f803e3d5ffd5b505050506001808111156102db576102da6107ca565b5b7f27757542a5e1b9e8cef80f584e094d4eb63b9802f355c61b3640b71b618d5c8e33858542866040516103129594939291906107f7565b60405180910390a2505050565b6003602052805f5260405f205f915054906101000a900460ff1681565b60015f9054906101000a900473ffffffffffffffffffffffffffffffffffffffff1673ffffffffffffffffffffffffffffffffffffffff16639dc29fac33836040518363ffffffff1660e01b81526004016103989291906107a3565b5f604051808303815f87803b1580156103af575f80fd5b505af11580156103c1573d5f803e3d5ffd5b505050505f60018111156103d8576103d76107ca565b5b7f27757542a5e1b9e8cef80f584e094d4eb63b9802f355c61b3640b71b618d5c8e338484426002546040516104119594939291906107f7565b60405180910390a260025f81548092919061042b90610875565b91905055505050565b60025481565b5f8054906101000a900473ffffffffffffffffffffffffffffffffffffffff1681565b60015f9054906101000a900473ffffffffffffffffffffffffffffffffffffffff1681565b5f80fd5b5f73ffffffffffffffffffffffffffffffffffffffff82169050919050565b5f6104af82610486565b9050919050565b6104bf816104a5565b81146104c9575f80fd5b50565b5f813590506104da816104b6565b92915050565b5f819050919050565b6104f2816104e0565b81146104fc575f80fd5b50565b5f8135905061050d816104e9565b92915050565b5f805f6060848603121561052a57610529610482565b5b5f610537868287016104cc565b9350506020610548868287016104ff565b9250506040610559868287016104ff565b9150509250925092565b5f6020828403121561057857610577610482565b5b5f610585848285016104ff565b91505092915050565b5f8115159050919050565b6105a28161058e565b82525050565b5f6020820190506105bb5f830184610599565b92915050565b5f80604083850312156105d7576105d6610482565b5b5f6105e4858286016104cc565b92505060206105f5858286016104ff565b9150509250929050565b610608816104e0565b82525050565b5f6020820190506106215f8301846105ff565b92915050565b610630816104a5565b82525050565b5f6020820190506106495f830184610627565b92915050565b5f819050919050565b5f61067261066d61066884610486565b61064f565b610486565b9050919050565b5f61068382610658565b9050919050565b5f61069482610679565b9050919050565b6106a48161068a565b82525050565b5f6020820190506106bd5f83018461069b565b92915050565b5f82825260208201905092915050565b7f6f6e6c792061646d696e000000000000000000000000000000000000000000005f82015250565b5f610707600a836106c3565b9150610712826106d3565b602082019050919050565b5f6020820190508181035f830152610734816106fb565b9050919050565b7f7472616e7366657220616c72656164792070726f6365737365640000000000005f82015250565b5f61076f601a836106c3565b915061077a8261073b565b602082019050919050565b5f6020820190508181035f83015261079c81610763565b9050919050565b5f6040820190506107b65f830185610627565b6107c360208301846105ff565b9392505050565b7f4e487b71000000000000000000000000000000000000000000000000000000005f52602160045260245ffd5b5f60a08201905061080a5f830188610627565b6108176020830187610627565b61082460408301866105ff565b61083160608301856105ff565b61083e60808301846105ff565b9695505050505050565b7f4e487b71000000000000000000000000000000000000000000000000000000005f52601160045260245ffd5b5f61087f826104e0565b91507fffffffffffffffffffffffffffffffffffffffffffffffffffffffffffffffff82036108b1576108b0610848565b5b60018201905091905056fea26469706673582212203f18e9194dcc34598a1880086012ad868486d15b9971df539f81e673529fc39a64736f6c63430008150033",
  "immutableReferences": {},
  "source": "// SPDX-License-Identifier: MIT\npragma solidity ^0.8.0;\n\nimport './BridgeBase.sol';\n\ncontract BridgeGoerli is BridgeBase {\n  constructor(address token) BridgeBase(token) {}\n}",
  "sourcePath": "/home/aljith/Desktop/hard-100/blockChain/projects/tokens/Bridge/contracts/BridgeGoerli.sol",
  "compiler": {
    "name": "solc",
    "version": "0.8.21+commit.d9974bed.Emscripten.clang"
  },
  "schemaVersion": "3.4.16",
  "updatedAt": "2023-10-05T17:58:03.472Z",
  "networkType": "ethereum",
  "devdoc": {
    "kind": "dev",
    "methods": {},
    "version": 1
  },
  "userdoc": {
    "kind": "user",
    "methods": {},
    "version": 1
  }
}