{
  "contractName": "TokenBase",
  "abi": [
    {
      "inputs": [
        {
          "internalType": "string",
          "name": "name",
          "type": "string"
        },
        {
          "internalType": "string",
          "name": "symbol",
          "type": "string"
        }
      ],
      "stateMutability": "nonpayable",
      "type": "constructor"
    },
    {
      "anonymous": false,
      "inputs": [
        {
          "indexed": true,
          "internalType": "address",
          "name": "owner",
          "type": "address"
        },
        {
          "indexed": true,
          "internalType": "address",
          "name": "spender",
          "type": "address"
        },
        {
          "indexed": false,
          "internalType": "uint256",
          "name": "value",
          "type": "uint256"
        }
      ],
      "name": "Approval",
      "type": "event"
    },
    {
      "anonymous": false,
      "inputs": [
        {
          "indexed": true,
          "internalType": "address",
          "name": "from",
          "type": "address"
        },
        {
          "indexed": true,
          "internalType": "address",
          "name": "to",
          "type": "address"
        },
        {
          "indexed": false,
          "internalType": "uint256",
          "name": "value",
          "type": "uint256"
        }
      ],
      "name": "Transfer",
      "type": "event"
    },
    {
      "inputs": [],
      "name": "admin",
      "outputs": [
        {
          "internalType": "address",
          "name": "",
          "type": "address"
        }
      ],
      "stateMutability": "view",
      "type": "function"
    },
    {
      "inputs": [
        {
          "internalType": "address",
          "name": "owner",
          "type": "address"
        },
        {
          "internalType": "address",
          "name": "spender",
          "type": "address"
        }
      ],
      "name": "allowance",
      "outputs": [
        {
          "internalType": "uint256",
          "name": "",
          "type": "uint256"
        }
      ],
      "stateMutability": "view",
      "type": "function"
    },
    {
      "inputs": [
        {
          "internalType": "address",
          "name": "spender",
          "type": "address"
        },
        {
          "internalType": "uint256",
          "name": "amount",
          "type": "uint256"
        }
      ],
      "name": "approve",
      "outputs": [
        {
          "internalType": "bool",
          "name": "",
          "type": "bool"
        }
      ],
      "stateMutability": "nonpayable",
      "type": "function"
    },
    {
      "inputs": [
        {
          "internalType": "address",
          "name": "account",
          "type": "address"
        }
      ],
      "name": "balanceOf",
      "outputs": [
        {
          "internalType": "uint256",
          "name": "",
          "type": "uint256"
        }
      ],
      "stateMutability": "view",
      "type": "function"
    },
    {
      "inputs": [],
      "name": "decimals",
      "outputs": [
        {
          "internalType": "uint8",
          "name": "",
          "type": "uint8"
        }
      ],
      "stateMutability": "view",
      "type": "function"
    },
    {
      "inputs": [
        {
          "internalType": "address",
          "name": "spender",
          "type": "address"
        },
        {
          "internalType": "uint256",
          "name": "subtractedValue",
          "type": "uint256"
        }
      ],
      "name": "decreaseAllowance",
      "outputs": [
        {
          "internalType": "bool",
          "name": "",
          "type": "bool"
        }
      ],
      "stateMutability": "nonpayable",
      "type": "function"
    },
    {
      "inputs": [
        {
          "internalType": "address",
          "name": "spender",
          "type": "address"
        },
        {
          "internalType": "uint256",
          "name": "addedValue",
          "type": "uint256"
        }
      ],
      "name": "increaseAllowance",
      "outputs": [
        {
          "internalType": "bool",
          "name": "",
          "type": "bool"
        }
      ],
      "stateMutability": "nonpayable",
      "type": "function"
    },
    {
      "inputs": [],
      "name": "name",
      "outputs": [
        {
          "internalType": "string",
          "name": "",
          "type": "string"
        }
      ],
      "stateMutability": "view",
      "type": "function"
    },
    {
      "inputs": [],
      "name": "symbol",
      "outputs": [
        {
          "internalType": "string",
          "name": "",
          "type": "string"
        }
      ],
      "stateMutability": "view",
      "type": "function"
    },
    {
      "inputs": [],
      "name": "totalSupply",
      "outputs": [
        {
          "internalType": "uint256",
          "name": "",
          "type": "uint256"
        }
      ],
      "stateMutability": "view",
      "type": "function"
    },
    {
      "inputs": [
        {
          "internalType": "address",
          "name": "to",
          "type": "address"
        },
        {
          "internalType": "uint256",
          "name": "amount",
          "type": "uint256"
        }
      ],
      "name": "transfer",
      "outputs": [
        {
          "internalType": "bool",
          "name": "",
          "type": "bool"
        }
      ],
      "stateMutability": "nonpayable",
      "type": "function"
    },
    {
      "inputs": [
        {
          "internalType": "address",
          "name": "from",
          "type": "address"
        },
        {
          "internalType": "address",
          "name": "to",
          "type": "address"
        },
        {
          "internalType": "uint256",
          "name": "amount",
          "type": "uint256"
        }
      ],
      "name": "transferFrom",
      "outputs": [
        {
          "internalType": "bool",
          "name": "",
          "type": "bool"
        }
      ],
      "stateMutability": "nonpayable",
      "type": "function"
    },
    {
      "inputs": [
        {
          "internalType": "address",
          "name": "newAdmin",
          "type": "address"
        }
      ],
      "name": "updateAdmin",
      "outputs": [],
      "stateMutability": "nonpayable",
      "type": "function"
    },
    {
      "inputs": [
        {
          "internalType": "address",
          "name": "to",
          "type": "address"
        },
        {
          "internalType": "uint256",
          "name": "amount",
          "type": "uint256"
        }
      ],
      "name": "mint",
      "outputs": [],
      "stateMutability": "nonpayable",
      "type": "function"
    },
    {
      "inputs": [
        {
          "internalType": "address",
          "name": "owner",
          "type": "address"
        },
        {
          "internalType": "uint256",
          "name": "amount",
          "type": "uint256"
        }
      ],
      "name": "burn",
      "outputs": [],
      "stateMutability": "nonpayable",
      "type": "function"
    }
  ],
  "bytecode": "0x608060405234801562000010575f80fd5b5060405162001fae38038062001fae83398181016040528101906200003691906200022b565b81818160039081620000499190620004e5565b5080600490816200005b9190620004e5565b5050503360055f6101000a81548173ffffffffffffffffffffffffffffffffffffffff021916908373ffffffffffffffffffffffffffffffffffffffff1602179055505050620005c9565b5f604051905090565b5f80fd5b5f80fd5b5f80fd5b5f80fd5b5f601f19601f8301169050919050565b7f4e487b71000000000000000000000000000000000000000000000000000000005f52604160045260245ffd5b6200010782620000bf565b810181811067ffffffffffffffff82111715620001295762000128620000cf565b5b80604052505050565b5f6200013d620000a6565b90506200014b8282620000fc565b919050565b5f67ffffffffffffffff8211156200016d576200016c620000cf565b5b6200017882620000bf565b9050602081019050919050565b5f5b83811015620001a457808201518184015260208101905062000187565b5f8484015250505050565b5f620001c5620001bf8462000150565b62000132565b905082815260208101848484011115620001e457620001e3620000bb565b5b620001f184828562000185565b509392505050565b5f82601f83011262000210576200020f620000b7565b5b815162000222848260208601620001af565b91505092915050565b5f8060408385031215620002445762000243620000af565b5b5f83015167ffffffffffffffff811115620002645762000263620000b3565b5b6200027285828601620001f9565b925050602083015167ffffffffffffffff811115620002965762000295620000b3565b5b620002a485828601620001f9565b9150509250929050565b5f81519050919050565b7f4e487b71000000000000000000000000000000000000000000000000000000005f52602260045260245ffd5b5f6002820490506001821680620002fd57607f821691505b602082108103620003135762000312620002b8565b5b50919050565b5f819050815f5260205f209050919050565b5f6020601f8301049050919050565b5f82821b905092915050565b5f60088302620003777fffffffffffffffffffffffffffffffffffffffffffffffffffffffffffffffff826200033a565b6200038386836200033a565b95508019841693508086168417925050509392505050565b5f819050919050565b5f819050919050565b5f620003cd620003c7620003c1846200039b565b620003a4565b6200039b565b9050919050565b5f819050919050565b620003e883620003ad565b62000400620003f782620003d4565b84845462000346565b825550505050565b5f90565b6200041662000408565b62000423818484620003dd565b505050565b5b818110156200044a576200043e5f826200040c565b60018101905062000429565b5050565b601f8211156200049957620004638162000319565b6200046e846200032b565b810160208510156200047e578190505b620004966200048d856200032b565b83018262000428565b50505b505050565b5f82821c905092915050565b5f620004bb5f19846008026200049e565b1980831691505092915050565b5f620004d58383620004aa565b9150826002028217905092915050565b620004f082620002ae565b67ffffffffffffffff8111156200050c576200050b620000cf565b5b620005188254620002e5565b620005258282856200044e565b5f60209050601f8311600181146200055b575f841562000546578287015190505b620005528582620004c8565b865550620005c1565b601f1984166200056b8662000319565b5f5b8281101562000594578489015182556001820191506020850194506020810190506200056d565b86831015620005b45784890151620005b0601f891682620004aa565b8355505b6001600288020188555050505b505050505050565b6119d780620005d75f395ff3fe608060405234801561000f575f80fd5b50600436106100f3575f3560e01c806370a0823111610095578063a9059cbb11610064578063a9059cbb14610297578063dd62ed3e146102c7578063e2f273bd146102f7578063f851a44014610313576100f3565b806370a08231146101fd57806395d89b411461022d5780639dc29fac1461024b578063a457c2d714610267576100f3565b806323b872dd116100d157806323b872dd14610163578063313ce5671461019357806339509351146101b157806340c10f19146101e1576100f3565b806306fdde03146100f7578063095ea7b31461011557806318160ddd14610145575b5f80fd5b6100ff610331565b60405161010c91906110dd565b60405180910390f35b61012f600480360381019061012a919061118e565b6103c1565b60405161013c91906111e6565b60405180910390f35b61014d6103e3565b60405161015a919061120e565b60405180910390f35b61017d60048036038101906101789190611227565b6103ec565b60405161018a91906111e6565b60405180910390f35b61019b61041a565b6040516101a89190611292565b60405180910390f35b6101cb60048036038101906101c6919061118e565b610422565b6040516101d891906111e6565b60405180910390f35b6101fb60048036038101906101f6919061118e565b610458565b005b610217600480360381019061021291906112ab565b6104f5565b604051610224919061120e565b60405180910390f35b61023561053a565b60405161024291906110dd565b60405180910390f35b6102656004803603810190610260919061118e565b6105ca565b005b610281600480360381019061027c919061118e565b610667565b60405161028e91906111e6565b60405180910390f35b6102b160048036038101906102ac919061118e565b6106dc565b6040516102be91906111e6565b60405180910390f35b6102e160048036038101906102dc91906112d6565b6106fe565b6040516102ee919061120e565b60405180910390f35b610311600480360381019061030c91906112ab565b610780565b005b61031b610852565b6040516103289190611323565b60405180910390f35b60606003805461034090611369565b80601f016020809104026020016040519081016040528092919081815260200182805461036c90611369565b80156103b75780601f1061038e576101008083540402835291602001916103b7565b820191905f5260205f20905b81548152906001019060200180831161039a57829003601f168201915b5050505050905090565b5f806103cb610877565b90506103d881858561087e565b600191505092915050565b5f600254905090565b5f806103f6610877565b9050610403858285610a41565b61040e858585610acc565b60019150509392505050565b5f6012905090565b5f8061042c610877565b905061044d81858561043e85896106fe565b61044891906113c6565b61087e565b600191505092915050565b60055f9054906101000a900473ffffffffffffffffffffffffffffffffffffffff1673ffffffffffffffffffffffffffffffffffffffff163373ffffffffffffffffffffffffffffffffffffffff16146104e7576040517f08c379a00000000000000000000000000000000000000000000000000000000081526004016104de90611443565b60405180910390fd5b6104f18282610d38565b5050565b5f805f8373ffffffffffffffffffffffffffffffffffffffff1673ffffffffffffffffffffffffffffffffffffffff1681526020019081526020015f20549050919050565b60606004805461054990611369565b80601f016020809104026020016040519081016040528092919081815260200182805461057590611369565b80156105c05780601f10610597576101008083540402835291602001916105c0565b820191905f5260205f20905b8154815290600101906020018083116105a357829003601f168201915b5050505050905090565b60055f9054906101000a900473ffffffffffffffffffffffffffffffffffffffff1673ffffffffffffffffffffffffffffffffffffffff163373ffffffffffffffffffffffffffffffffffffffff1614610659576040517f08c379a000000000000000000000000000000000000000000000000000000000815260040161065090611443565b60405180910390fd5b6106638282610e86565b5050565b5f80610671610877565b90505f61067e82866106fe565b9050838110156106c3576040517f08c379a00000000000000000000000000000000000000000000000000000000081526004016106ba906114d1565b60405180910390fd5b6106d0828686840361087e565b60019250505092915050565b5f806106e6610877565b90506106f3818585610acc565b600191505092915050565b5f60015f8473ffffffffffffffffffffffffffffffffffffffff1673ffffffffffffffffffffffffffffffffffffffff1681526020019081526020015f205f8373ffffffffffffffffffffffffffffffffffffffff1673ffffffffffffffffffffffffffffffffffffffff1681526020019081526020015f2054905092915050565b60055f9054906101000a900473ffffffffffffffffffffffffffffffffffffffff1673ffffffffffffffffffffffffffffffffffffffff163373ffffffffffffffffffffffffffffffffffffffff161461080f576040517f08c379a000000000000000000000000000000000000000000000000000000000815260040161080690611443565b60405180910390fd5b8060055f6101000a81548173ffffffffffffffffffffffffffffffffffffffff021916908373ffffffffffffffffffffffffffffffffffffffff16021790555050565b60055f9054906101000a900473ffffffffffffffffffffffffffffffffffffffff1681565b5f33905090565b5f73ffffffffffffffffffffffffffffffffffffffff168373ffffffffffffffffffffffffffffffffffffffff16036108ec576040517f08c379a00000000000000000000000000000000000000000000000000000000081526004016108e39061155f565b60405180910390fd5b5f73ffffffffffffffffffffffffffffffffffffffff168273ffffffffffffffffffffffffffffffffffffffff160361095a576040517f08c379a0000000000000000000000000000000000000000000000000000000008152600401610951906115ed565b60405180910390fd5b8060015f8573ffffffffffffffffffffffffffffffffffffffff1673ffffffffffffffffffffffffffffffffffffffff1681526020019081526020015f205f8473ffffffffffffffffffffffffffffffffffffffff1673ffffffffffffffffffffffffffffffffffffffff1681526020019081526020015f20819055508173ffffffffffffffffffffffffffffffffffffffff168373ffffffffffffffffffffffffffffffffffffffff167f8c5be1e5ebec7d5bd14f71427d1e84f3dd0314c0f7b2291e5b200ac8c7c3b92583604051610a34919061120e565b60405180910390a3505050565b5f610a4c84846106fe565b90507fffffffffffffffffffffffffffffffffffffffffffffffffffffffffffffffff8114610ac65781811015610ab8576040517f08c379a0000000000000000000000000000000000000000000000000000000008152600401610aaf90611655565b60405180910390fd5b610ac5848484840361087e565b5b50505050565b5f73ffffffffffffffffffffffffffffffffffffffff168373ffffffffffffffffffffffffffffffffffffffff1603610b3a576040517f08c379a0000000000000000000000000000000000000000000000000000000008152600401610b31906116e3565b60405180910390fd5b5f73ffffffffffffffffffffffffffffffffffffffff168273ffffffffffffffffffffffffffffffffffffffff1603610ba8576040517f08c379a0000000000000000000000000000000000000000000000000000000008152600401610b9f90611771565b60405180910390fd5b610bb3838383611049565b5f805f8573ffffffffffffffffffffffffffffffffffffffff1673ffffffffffffffffffffffffffffffffffffffff1681526020019081526020015f2054905081811015610c36576040517f08c379a0000000000000000000000000000000000000000000000000000000008152600401610c2d906117ff565b60405180910390fd5b8181035f808673ffffffffffffffffffffffffffffffffffffffff1673ffffffffffffffffffffffffffffffffffffffff1681526020019081526020015f2081905550815f808573ffffffffffffffffffffffffffffffffffffffff1673ffffffffffffffffffffffffffffffffffffffff1681526020019081526020015f205f82825401925050819055508273ffffffffffffffffffffffffffffffffffffffff168473ffffffffffffffffffffffffffffffffffffffff167fddf252ad1be2c89b69c2b068fc378daa952ba7f163c4a11628f55a4df523b3ef84604051610d1f919061120e565b60405180910390a3610d3284848461104e565b50505050565b5f73ffffffffffffffffffffffffffffffffffffffff168273ffffffffffffffffffffffffffffffffffffffff1603610da6576040517f08c379a0000000000000000000000000000000000000000000000000000000008152600401610d9d90611867565b60405180910390fd5b610db15f8383611049565b8060025f828254610dc291906113c6565b92505081905550805f808473ffffffffffffffffffffffffffffffffffffffff1673ffffffffffffffffffffffffffffffffffffffff1681526020019081526020015f205f82825401925050819055508173ffffffffffffffffffffffffffffffffffffffff165f73ffffffffffffffffffffffffffffffffffffffff167fddf252ad1be2c89b69c2b068fc378daa952ba7f163c4a11628f55a4df523b3ef83604051610e6f919061120e565b60405180910390a3610e825f838361104e565b5050565b5f73ffffffffffffffffffffffffffffffffffffffff168273ffffffffffffffffffffffffffffffffffffffff1603610ef4576040517f08c379a0000000000000000000000000000000000000000000000000000000008152600401610eeb906118f5565b60405180910390fd5b610eff825f83611049565b5f805f8473ffffffffffffffffffffffffffffffffffffffff1673ffffffffffffffffffffffffffffffffffffffff1681526020019081526020015f2054905081811015610f82576040517f08c379a0000000000000000000000000000000000000000000000000000000008152600401610f7990611983565b60405180910390fd5b8181035f808573ffffffffffffffffffffffffffffffffffffffff1673ffffffffffffffffffffffffffffffffffffffff1681526020019081526020015f20819055508160025f82825403925050819055505f73ffffffffffffffffffffffffffffffffffffffff168373ffffffffffffffffffffffffffffffffffffffff167fddf252ad1be2c89b69c2b068fc378daa952ba7f163c4a11628f55a4df523b3ef84604051611031919061120e565b60405180910390a3611044835f8461104e565b505050565b505050565b505050565b5f81519050919050565b5f82825260208201905092915050565b5f5b8381101561108a57808201518184015260208101905061106f565b5f8484015250505050565b5f601f19601f8301169050919050565b5f6110af82611053565b6110b9818561105d565b93506110c981856020860161106d565b6110d281611095565b840191505092915050565b5f6020820190508181035f8301526110f581846110a5565b905092915050565b5f80fd5b5f73ffffffffffffffffffffffffffffffffffffffff82169050919050565b5f61112a82611101565b9050919050565b61113a81611120565b8114611144575f80fd5b50565b5f8135905061115581611131565b92915050565b5f819050919050565b61116d8161115b565b8114611177575f80fd5b50565b5f8135905061118881611164565b92915050565b5f80604083850312156111a4576111a36110fd565b5b5f6111b185828601611147565b92505060206111c28582860161117a565b9150509250929050565b5f8115159050919050565b6111e0816111cc565b82525050565b5f6020820190506111f95f8301846111d7565b92915050565b6112088161115b565b82525050565b5f6020820190506112215f8301846111ff565b92915050565b5f805f6060848603121561123e5761123d6110fd565b5b5f61124b86828701611147565b935050602061125c86828701611147565b925050604061126d8682870161117a565b9150509250925092565b5f60ff82169050919050565b61128c81611277565b82525050565b5f6020820190506112a55f830184611283565b92915050565b5f602082840312156112c0576112bf6110fd565b5b5f6112cd84828501611147565b91505092915050565b5f80604083850312156112ec576112eb6110fd565b5b5f6112f985828601611147565b925050602061130a85828601611147565b9150509250929050565b61131d81611120565b82525050565b5f6020820190506113365f830184611314565b92915050565b7f4e487b71000000000000000000000000000000000000000000000000000000005f52602260045260245ffd5b5f600282049050600182168061138057607f821691505b6020821081036113935761139261133c565b5b50919050565b7f4e487b71000000000000000000000000000000000000000000000000000000005f52601160045260245ffd5b5f6113d08261115b565b91506113db8361115b565b92508282019050808211156113f3576113f2611399565b5b92915050565b7f6f6e6c792061646d696e000000000000000000000000000000000000000000005f82015250565b5f61142d600a8361105d565b9150611438826113f9565b602082019050919050565b5f6020820190508181035f83015261145a81611421565b9050919050565b7f45524332303a2064656372656173656420616c6c6f77616e63652062656c6f775f8201527f207a65726f000000000000000000000000000000000000000000000000000000602082015250565b5f6114bb60258361105d565b91506114c682611461565b604082019050919050565b5f6020820190508181035f8301526114e8816114af565b9050919050565b7f45524332303a20617070726f76652066726f6d20746865207a65726f206164645f8201527f7265737300000000000000000000000000000000000000000000000000000000602082015250565b5f61154960248361105d565b9150611554826114ef565b604082019050919050565b5f6020820190508181035f8301526115768161153d565b9050919050565b7f45524332303a20617070726f766520746f20746865207a65726f2061646472655f8201527f7373000000000000000000000000000000000000000000000000000000000000602082015250565b5f6115d760228361105d565b91506115e28261157d565b604082019050919050565b5f6020820190508181035f830152611604816115cb565b9050919050565b7f45524332303a20696e73756666696369656e7420616c6c6f77616e63650000005f82015250565b5f61163f601d8361105d565b915061164a8261160b565b602082019050919050565b5f6020820190508181035f83015261166c81611633565b9050919050565b7f45524332303a207472616e736665722066726f6d20746865207a65726f2061645f8201527f6472657373000000000000000000000000000000000000000000000000000000602082015250565b5f6116cd60258361105d565b91506116d882611673565b604082019050919050565b5f6020820190508181035f8301526116fa816116c1565b9050919050565b7f45524332303a207472616e7366657220746f20746865207a65726f20616464725f8201527f6573730000000000000000000000000000000000000000000000000000000000602082015250565b5f61175b60238361105d565b915061176682611701565b604082019050919050565b5f6020820190508181035f8301526117888161174f565b9050919050565b7f45524332303a207472616e7366657220616d6f756e74206578636565647320625f8201527f616c616e63650000000000000000000000000000000000000000000000000000602082015250565b5f6117e960268361105d565b91506117f48261178f565b604082019050919050565b5f6020820190508181035f830152611816816117dd565b9050919050565b7f45524332303a206d696e7420746f20746865207a65726f2061646472657373005f82015250565b5f611851601f8361105d565b915061185c8261181d565b602082019050919050565b5f6020820190508181035f83015261187e81611845565b9050919050565b7f45524332303a206275726e2066726f6d20746865207a65726f206164647265735f8201527f7300000000000000000000000000000000000000000000000000000000000000602082015250565b5f6118df60218361105d565b91506118ea82611885565b604082019050919050565b5f6020820190508181035f83015261190c816118d3565b9050919050565b7f45524332303a206275726e20616d6f756e7420657863656564732062616c616e5f8201527f6365000000000000000000000000000000000000000000000000000000000000602082015250565b5f61196d60228361105d565b915061197882611913565b604082019050919050565b5f6020820190508181035f83015261199a81611961565b905091905056fea26469706673582212202f064adef04a9971a5f895a51a3ad106a488add894911a52742a42575346f6ad64736f6c63430008150033",
  "immutableReferences": {},
  "source": "// SPDX-License-Identifier: MIT\npragma solidity ^0.8.0;\n\nimport '@openzeppelin/contracts/token/ERC20/ERC20.sol';\n\ncontract TokenBase is ERC20 {\n  address public admin;\n\n  constructor(string memory name, string memory symbol) ERC20(name, symbol) {\n    admin = msg.sender;\n  }\n\n  modifier isOwner {\n    require(msg.sender == admin, 'only admin');\n    _;\n  }\n\n  function updateAdmin(address newAdmin) external isOwner {\n    admin = newAdmin;\n  }\n\n  function mint(address to, uint amount) external isOwner {\n    _mint(to, amount);\n  }\n\n  function burn(address owner, uint amount) external isOwner {\n    _burn(owner, amount);\n  }\n}",
  "sourcePath": "/home/aljith/Desktop/hard-100/blockChain/projects/tokens/Bridge/contracts/TokenBase.sol",
  "compiler": {
    "name": "solc",
    "version": "0.8.21+commit.d9974bed.Emscripten.clang"
  },
  "schemaVersion": "3.4.16",
  "updatedAt": "2023-10-05T17:25:07.587Z",
  "devdoc": {
    "events": {
      "Approval(address,address,uint256)": {
        "details": "Emitted when the allowance of a `spender` for an `owner` is set by a call to {approve}. `value` is the new allowance."
      },
      "Transfer(address,address,uint256)": {
        "details": "Emitted when `value` tokens are moved from one account (`from`) to another (`to`). Note that `value` may be zero."
      }
    },
    "kind": "dev",
    "methods": {
      "allowance(address,address)": {
        "details": "See {IERC20-allowance}."
      },
      "approve(address,uint256)": {
        "details": "See {IERC20-approve}. NOTE: If `amount` is the maximum `uint256`, the allowance is not updated on `transferFrom`. This is semantically equivalent to an infinite approval. Requirements: - `spender` cannot be the zero address."
      },
      "balanceOf(address)": {
        "details": "See {IERC20-balanceOf}."
      },
      "decimals()": {
        "details": "Returns the number of decimals used to get its user representation. For example, if `decimals` equals `2`, a balance of `505` tokens should be displayed to a user as `5.05` (`505 / 10 ** 2`). Tokens usually opt for a value of 18, imitating the relationship between Ether and Wei. This is the default value returned by this function, unless it's overridden. NOTE: This information is only used for _display_ purposes: it in no way affects any of the arithmetic of the contract, including {IERC20-balanceOf} and {IERC20-transfer}."
      },
      "decreaseAllowance(address,uint256)": {
        "details": "Atomically decreases the allowance granted to `spender` by the caller. This is an alternative to {approve} that can be used as a mitigation for problems described in {IERC20-approve}. Emits an {Approval} event indicating the updated allowance. Requirements: - `spender` cannot be the zero address. - `spender` must have allowance for the caller of at least `subtractedValue`."
      },
      "increaseAllowance(address,uint256)": {
        "details": "Atomically increases the allowance granted to `spender` by the caller. This is an alternative to {approve} that can be used as a mitigation for problems described in {IERC20-approve}. Emits an {Approval} event indicating the updated allowance. Requirements: - `spender` cannot be the zero address."
      },
      "name()": {
        "details": "Returns the name of the token."
      },
      "symbol()": {
        "details": "Returns the symbol of the token, usually a shorter version of the name."
      },
      "totalSupply()": {
        "details": "See {IERC20-totalSupply}."
      },
      "transfer(address,uint256)": {
        "details": "See {IERC20-transfer}. Requirements: - `to` cannot be the zero address. - the caller must have a balance of at least `amount`."
      },
      "transferFrom(address,address,uint256)": {
        "details": "See {IERC20-transferFrom}. Emits an {Approval} event indicating the updated allowance. This is not required by the EIP. See the note at the beginning of {ERC20}. NOTE: Does not update the allowance if the current allowance is the maximum `uint256`. Requirements: - `from` and `to` cannot be the zero address. - `from` must have a balance of at least `amount`. - the caller must have allowance for ``from``'s tokens of at least `amount`."
      }
    },
    "version": 1
  },
  "userdoc": {
    "kind": "user",
    "methods": {},
    "version": 1
  }
}